{
  "contractName": "StakeTube",
  "abi": [
    {
      "anonymous": false,
      "inputs": [
        {
          "indexed": false,
          "internalType": "uint256",
          "name": "videoId",
          "type": "uint256"
        }
      ],
      "name": "tipped",
      "type": "event"
    },
    {
      "anonymous": false,
      "inputs": [
        {
          "indexed": false,
          "internalType": "uint256",
          "name": "videoId",
          "type": "uint256"
        },
        {
          "indexed": false,
          "internalType": "address payable",
          "name": "creator",
          "type": "address"
        }
      ],
      "name": "videoAdded",
      "type": "event"
    },
    {
      "inputs": [
        {
          "internalType": "uint256",
          "name": "",
          "type": "uint256"
        }
      ],
      "name": "idToVideo",
      "outputs": [
        {
          "internalType": "uint256",
          "name": "videoId",
          "type": "uint256"
        },
        {
          "internalType": "string",
          "name": "name",
          "type": "string"
        },
        {
          "internalType": "string",
          "name": "description",
          "type": "string"
        },
        {
          "internalType": "address payable",
          "name": "creator",
          "type": "address"
        }
      ],
      "stateMutability": "view",
      "type": "function"
    },
    {
      "inputs": [],
      "name": "totalVideos",
      "outputs": [
        {
          "internalType": "uint256",
          "name": "",
          "type": "uint256"
        }
      ],
      "stateMutability": "view",
      "type": "function"
    },
    {
      "inputs": [
        {
          "internalType": "uint256",
          "name": "",
          "type": "uint256"
        }
      ],
      "name": "videos",
      "outputs": [
        {
          "internalType": "uint256",
          "name": "videoId",
          "type": "uint256"
        },
        {
          "internalType": "string",
          "name": "name",
          "type": "string"
        },
        {
          "internalType": "string",
          "name": "description",
          "type": "string"
        },
        {
          "internalType": "address payable",
          "name": "creator",
          "type": "address"
        }
      ],
      "stateMutability": "view",
      "type": "function"
    },
    {
      "inputs": [
        {
          "internalType": "string",
          "name": "_name",
          "type": "string"
        },
        {
          "internalType": "string",
          "name": "_description",
          "type": "string"
        }
      ],
      "name": "addVideo",
      "outputs": [],
      "stateMutability": "nonpayable",
      "type": "function"
    },
    {
      "inputs": [],
      "name": "tip",
      "outputs": [],
      "stateMutability": "nonpayable",
      "type": "function"
    }
  ],
  "bytecode": "0x608060405234801561001057600080fd5b506109ff806100206000396000f3fe608060405234801561001057600080fd5b50600436106100575760003560e01c80630dbd9bdc1461005c5780632755cd2d146101ae578063cd544f64146101b8578063e230a208146102ef578063e6821bf51461030d575b600080fd5b6101ac6004803603604081101561007257600080fd5b810190808035906020019064010000000081111561008f57600080fd5b8201836020820111156100a157600080fd5b803590602001918460018302840111640100000000831117156100c357600080fd5b91908080601f016020809104026020016040519081016040528093929190818152602001838380828437600081840152601f19601f8201169050808301925050505050505091929192908035906020019064010000000081111561012657600080fd5b82018360208201111561013857600080fd5b8035906020019184600183028401116401000000008311171561015a57600080fd5b91908080601f016020809104026020016040519081016040528093929190818152602001838380828437600081840152601f19601f820116905080830192505050505050509192919290505050610444565b005b6101b66105a4565b005b6101e4600480360360208110156101ce57600080fd5b8101908080359060200190929190505050610608565b6040518085815260200180602001806020018473ffffffffffffffffffffffffffffffffffffffff168152602001838103835286818151815260200191508051906020019080838360005b8381101561024a57808201518184015260208101905061022f565b50505050905090810190601f1680156102775780820380516001836020036101000a031916815260200191505b50838103825285818151815260200191508051906020019080838360005b838110156102b0578082015181840152602081019050610295565b50505050905090810190601f1680156102dd5780820380516001836020036101000a031916815260200191505b50965050505050505060405180910390f35b6102f7610788565b6040518082815260200191505060405180910390f35b6103396004803603602081101561032357600080fd5b810190808035906020019092919050505061078e565b6040518085815260200180602001806020018473ffffffffffffffffffffffffffffffffffffffff168152602001838103835286818151815260200191508051906020019080838360005b8381101561039f578082015181840152602081019050610384565b50505050905090810190601f1680156103cc5780820380516001836020036101000a031916815260200191505b50838103825285818151815260200191508051906020019080838360005b838110156104055780820151818401526020810190506103ea565b50505050905090810190601f1680156104325780820380516001836020036101000a031916815260200191505b50965050505050505060405180910390f35b6000808154809291906001019190505550600080549050600160405180608001604052808381526020018581526020018481526020013373ffffffffffffffffffffffffffffffffffffffff1681525090806001815401808255809150506001900390600052602060002090600402016000909190919091506000820151816000015560208201518160010190805190602001906104e392919061091e565b50604082015181600201908051906020019061050092919061091e565b5060608201518160030160006101000a81548173ffffffffffffffffffffffffffffffffffffffff021916908373ffffffffffffffffffffffffffffffffffffffff16021790555050507f575c04ce1860600eaadeffb7de46bfa696eef7a41f20431cf444a41ede93ebcc8133604051808381526020018273ffffffffffffffffffffffffffffffffffffffff1681526020019250505060405180910390a1505050565b600060016000815481106105b457fe5b906000526020600020906004020190506000816000015490507f0e947bd5318dc18fdab518b172a221e300e66877b9615ea32b52944bf236b727816040518082815260200191505060405180910390a15050565b6002602052806000526040600020600091509050806000015490806001018054600181600116156101000203166002900480601f0160208091040260200160405190810160405280929190818152602001828054600181600116156101000203166002900480156106ba5780601f1061068f576101008083540402835291602001916106ba565b820191906000526020600020905b81548152906001019060200180831161069d57829003601f168201915b505050505090806002018054600181600116156101000203166002900480601f0160208091040260200160405190810160405280929190818152602001828054600181600116156101000203166002900480156107585780601f1061072d57610100808354040283529160200191610758565b820191906000526020600020905b81548152906001019060200180831161073b57829003601f168201915b5050505050908060030160009054906101000a900473ffffffffffffffffffffffffffffffffffffffff16905084565b60005481565b6001818154811061079e57600080fd5b9060005260206000209060040201600091509050806000015490806001018054600181600116156101000203166002900480601f0160208091040260200160405190810160405280929190818152602001828054600181600116156101000203166002900480156108505780601f1061082557610100808354040283529160200191610850565b820191906000526020600020905b81548152906001019060200180831161083357829003601f168201915b505050505090806002018054600181600116156101000203166002900480601f0160208091040260200160405190810160405280929190818152602001828054600181600116156101000203166002900480156108ee5780601f106108c3576101008083540402835291602001916108ee565b820191906000526020600020905b8154815290600101906020018083116108d157829003601f168201915b5050505050908060030160009054906101000a900473ffffffffffffffffffffffffffffffffffffffff16905084565b828054600181600116156101000203166002900490600052602060002090601f016020900481019282610954576000855561099b565b82601f1061096d57805160ff191683800117855561099b565b8280016001018555821561099b579182015b8281111561099a57825182559160200191906001019061097f565b5b5090506109a891906109ac565b5090565b5b808211156109c55760008160009055506001016109ad565b509056fea2646970667358221220becd47a496bb8f28f793baf8fbb697d0df6c3e1db6e2fd2aff0fd0b247a5b84364736f6c63430007060033",
  "immutableReferences": {},
  "source": "// SPDX-License-Identifier: UNLICENSED\npragma solidity ^0.7.0;\n\n/// @title Attention economy for videos\n/// @author Aniket Parate\n/// @notice Contract implementing direct and complete payment to the artist as well as adding videos\ncontract StakeTube {\n\n    /// @notice Structure for storing videos\n    /// @dev currently ipfs is not implemented, implement using the string ipfsHash\n    struct Video{\n        uint videoId;\n        string name;\n        string description;\n        address payable creator;\n        // string ipfsHash;\n    }\n\n    /// @notice total number of videos stored currently.\n    uint public totalVideos;\n\n    /// @notice Array containing all the videos\n    Video[] public videos;\n\n    /// @notice mapping from id to Video object\n    mapping(uint => Video) public idToVideo;\n\n    /// @notice Event emitted after video is addVideo\n    event videoAdded(\n        uint videoId,\n        address payable creator\n    );\n\n    /// @notice Event after the amount is tipped\n    event tipped(\n        uint videoId\n    );\n\n    /// @dev Adds Video Details to the blockchain\n    /// @dev Add the necessary require statements\n    /// @param _name Name of Video\n    /// @param _description Description of Video\n    function addVideo(string memory _name, string memory _description) public {\n        totalVideos++;\n        uint _videoId = totalVideos;\n        videos.push(Video(\n            _videoId,\n            _name,\n            _description,\n            msg.sender\n        ));\n        emit videoAdded(_videoId, msg.sender);\n    }\n\n    /// @notice Function for tipping the creator of the video\n    /// @dev CAUTION Currently it is taking the index of array, to be modified to take video Id\n    function tip() public {\n        Video storage myVideo = videos[0];\n        uint myVideoId = myVideo.videoId;\n        emit tipped(myVideoId);\n    }\n\n}",
  "sourcePath": "/home/versilio/VERSILIO/Techworks/Blockchain/Stake-Tube/st-artist/contracts/StakeTube.sol",
  "compiler": {
    "name": "solc",
    "version": "0.7.6+commit.7338295f.Emscripten.clang"
  },
  "schemaVersion": "3.3.2",
  "updatedAt": "2021-01-09T20:29:35.546Z",
  "devdoc": {
    "author": "Aniket Parate",
    "kind": "dev",
    "methods": {
      "addVideo(string,string)": {
        "details": "Adds Video Details to the blockchainAdd the necessary require statements",
        "params": {
          "_description": "Description of Video",
          "_name": "Name of Video"
        }
      },
      "tip()": {
        "details": "CAUTION Currently it is taking the index of array, to be modified to take video Id"
      }
    },
    "title": "Attention economy for videos",
    "version": 1
  },
  "userdoc": {
    "events": {
      "tipped(uint256)": {
        "notice": "Event after the amount is tipped"
      },
      "videoAdded(uint256,address)": {
        "notice": "Event emitted after video is addVideo"
      }
    },
    "kind": "user",
    "methods": {
      "idToVideo(uint256)": {
        "notice": "mapping from id to Video object"
      },
      "tip()": {
        "notice": "Function for tipping the creator of the video"
      },
      "totalVideos()": {
        "notice": "total number of videos stored currently."
      },
      "videos(uint256)": {
        "notice": "Array containing all the videos"
      }
    },
    "notice": "Contract implementing direct and complete payment to the artist as well as adding videos",
    "version": 1
  }
}