{
  "contractName": "StakeTube",
  "abi": [
    {
      "anonymous": false,
      "inputs": [
        {
          "indexed": false,
          "internalType": "uint256",
          "name": "videoId",
          "type": "uint256"
        },
        {
          "indexed": false,
          "internalType": "address payable",
          "name": "creator",
          "type": "address"
        },
        {
          "indexed": false,
          "internalType": "address payable",
          "name": "tipper",
          "type": "address"
        }
      ],
      "name": "tipped",
      "type": "event"
    },
    {
      "anonymous": false,
      "inputs": [
        {
          "indexed": false,
          "internalType": "uint256",
          "name": "videoId",
          "type": "uint256"
        },
        {
          "indexed": false,
          "internalType": "address payable",
          "name": "creator",
          "type": "address"
        }
      ],
      "name": "videoAdded",
      "type": "event"
    },
    {
      "inputs": [],
      "name": "totalVideos",
      "outputs": [
        {
          "internalType": "uint256",
          "name": "",
          "type": "uint256"
        }
      ],
      "stateMutability": "view",
      "type": "function",
      "constant": true
    },
    {
      "inputs": [
        {
          "internalType": "uint256",
          "name": "",
          "type": "uint256"
        }
      ],
      "name": "videos",
      "outputs": [
        {
          "internalType": "uint256",
          "name": "videoId",
          "type": "uint256"
        },
        {
          "internalType": "string",
          "name": "name",
          "type": "string"
        },
        {
          "internalType": "string",
          "name": "description",
          "type": "string"
        },
        {
          "internalType": "address payable",
          "name": "creator",
          "type": "address"
        }
      ],
      "stateMutability": "view",
      "type": "function",
      "constant": true
    },
    {
      "inputs": [
        {
          "internalType": "string",
          "name": "_name",
          "type": "string"
        },
        {
          "internalType": "string",
          "name": "_description",
          "type": "string"
        }
      ],
      "name": "addVideo",
      "outputs": [],
      "stateMutability": "nonpayable",
      "type": "function"
    },
    {
      "inputs": [
        {
          "internalType": "uint256",
          "name": "_videoId",
          "type": "uint256"
        }
      ],
      "name": "tip",
      "outputs": [],
      "stateMutability": "payable",
      "type": "function",
      "payable": true
    }
  ],
  "bytecode": "0x608060405234801561001057600080fd5b50610875806100206000396000f3fe60806040526004361061003f5760003560e01c80630dbd9bdc14610044578063e230a208146101a3578063e6821bf5146101ce578063e8b69bc314610312575b600080fd5b34801561005057600080fd5b506101a16004803603604081101561006757600080fd5b810190808035906020019064010000000081111561008457600080fd5b82018360208201111561009657600080fd5b803590602001918460018302840111640100000000831117156100b857600080fd5b91908080601f016020809104026020016040519081016040528093929190818152602001838380828437600081840152601f19601f8201169050808301925050505050505091929192908035906020019064010000000081111561011b57600080fd5b82018360208201111561012d57600080fd5b8035906020019184600183028401116401000000008311171561014f57600080fd5b91908080601f016020809104026020016040519081016040528093929190818152602001838380828437600081840152601f19601f820116905080830192505050505050509192919290505050610340565b005b3480156101af57600080fd5b506101b861048f565b6040518082815260200191505060405180910390f35b3480156101da57600080fd5b50610207600480360360208110156101f157600080fd5b8101908080359060200190929190505050610495565b6040518085815260200180602001806020018473ffffffffffffffffffffffffffffffffffffffff168152602001838103835286818151815260200191508051906020019080838360005b8381101561026d578082015181840152602081019050610252565b50505050905090810190601f16801561029a5780820380516001836020036101000a031916815260200191505b50838103825285818151815260200191508051906020019080838360005b838110156102d35780820151818401526020810190506102b8565b50505050905090810190601f1680156103005780820380516001836020036101000a031916815260200191505b50965050505050505060405180910390f35b61033e6004803603602081101561032857600080fd5b8101908080359060200190929190505050610615565b005b6000808154809291906001019190505550600080549050600060405180608001604052808381526020018581526020018481526020013373ffffffffffffffffffffffffffffffffffffffff16815250905080600160008481526020019081526020016000206000820151816000015560208201518160010190805190602001906103cc929190610794565b5060408201518160020190805190602001906103e9929190610794565b5060608201518160030160006101000a81548173ffffffffffffffffffffffffffffffffffffffff021916908373ffffffffffffffffffffffffffffffffffffffff1602179055509050507f575c04ce1860600eaadeffb7de46bfa696eef7a41f20431cf444a41ede93ebcc8233604051808381526020018273ffffffffffffffffffffffffffffffffffffffff1681526020019250505060405180910390a150505050565b60005481565b6001602052806000526040600020600091509050806000015490806001018054600181600116156101000203166002900480601f0160208091040260200160405190810160405280929190818152602001828054600181600116156101000203166002900480156105475780601f1061051c57610100808354040283529160200191610547565b820191906000526020600020905b81548152906001019060200180831161052a57829003601f168201915b505050505090806002018054600181600116156101000203166002900480601f0160208091040260200160405190810160405280929190818152602001828054600181600116156101000203166002900480156105e55780601f106105ba576101008083540402835291602001916105e5565b820191906000526020600020905b8154815290600101906020018083116105c857829003601f168201915b5050505050908060030160009054906101000a900473ffffffffffffffffffffffffffffffffffffffff16905084565b600060016000838152602001908152602001600020905060008160030160009054906101000a900473ffffffffffffffffffffffffffffffffffffffff169050600082600001549050600034116106d4576040517f08c379a000000000000000000000000000000000000000000000000000000000815260040180806020018281038252601b8152602001807f546865207469702073686f756c64206265206e6f6e2d7a65726f2e000000000081525060200191505060405180910390fd5b8173ffffffffffffffffffffffffffffffffffffffff166108fc349081150290604051600060405180830381858888f1935050505015801561071a573d6000803e3d6000fd5b507fff4e2c4b5b26e1896ee316ccc4b45ebe98440c57e707da4c11c3354727260f72818333604051808481526020018373ffffffffffffffffffffffffffffffffffffffff1681526020018273ffffffffffffffffffffffffffffffffffffffff168152602001935050505060405180910390a150505050565b828054600181600116156101000203166002900490600052602060002090601f0160209004810192826107ca5760008555610811565b82601f106107e357805160ff1916838001178555610811565b82800160010185558215610811579182015b828111156108105782518255916020019190600101906107f5565b5b50905061081e9190610822565b5090565b5b8082111561083b576000816000905550600101610823565b509056fea264697066735822122079f45af358dd8dd1309489d25d8ec81758ccf02aae98cb69e909949bb47db09864736f6c63430007060033",
  "immutableReferences": {},
  "source": "// SPDX-License-Identifier: UNLICENSED\npragma solidity ^0.7.0;\n\n/// @title Attention economy for videos\n/// @author Aniket Parate\n/// @notice Contract implementing direct and complete payment to the artist as well as adding videos\ncontract StakeTube {\n\n    /// @notice Structure for storing videos\n    /// @dev currently ipfs is not implemented, implement using the string ipfsHash\n    struct Video{\n        uint videoId;\n        string name;\n        string description;\n        address payable creator;\n        // string ipfsHash;\n    }\n\n    /// @notice total number of videos stored currently.\n    uint public totalVideos;\n\n    /// @notice Array containing all the videos\n    // Video[] public videos;\n\n    /// @notice Mapping from video id to the video struct stored on blockchain\n    mapping (uint => Video) public videos;\n\n    /// @notice mapping from id to Video object\n    // mapping(uint => Video) public idToVideo;\n\n    /// @notice Event emitted after video is addVideo\n    event videoAdded(\n        uint videoId,\n        address payable creator\n    );\n\n    /// @notice Event after the amount is tipped\n    event tipped(\n        uint videoId,\n        address payable creator,\n        address payable tipper\n    );\n\n    /// @dev Adds Video Details to the blockchain\n    /// @dev Add the necessary require statements\n    /// @param _name Name of Video\n    /// @param _description Description of Video\n    // function addVideo(string memory _name, string memory _description) public {\n    //     totalVideos++;\n    //     uint _videoId = totalVideos;\n    //     videos.push(Video(\n    //         _videoId,\n    //         _name,\n    //         _description,\n    //         msg.sender\n    //     ));\n    //     emit videoAdded(_videoId, msg.sender);\n    // }\n    function addVideo(string memory _name, string memory _description) public {\n        totalVideos++;\n        uint _videoId = totalVideos;\n        Video memory video = Video(\n            _videoId,\n            _name,\n            _description,\n            msg.sender\n        );\n        videos[_videoId] = video;\n        emit videoAdded(_videoId, msg.sender);\n\n    }\n\n    /// @notice Function for tipping the creator of the video\n    /// @param _videoId Id of the video\n    /// @dev CAUTION Currently it is taking the index of array, to be modified to take video Id\n    function tip(uint _videoId) public payable{\n        Video storage myVideo = videos[_videoId];\n        address payable creator = myVideo.creator;\n        uint myVideoId = myVideo.videoId;\n\n        require(\n            msg.value > 0, \n            \"The tip should be non-zero.\"\n        );\n\n        creator.transfer(msg.value);\n        emit tipped(myVideoId, creator, msg.sender);\n    }\n\n}",
  "sourcePath": "/home/versilio/VERSILIO/Techworks/Blockchain/Stake-Tube/st-artist/contracts/StakeTube.sol",
  "compiler": {
    "name": "solc",
    "version": "0.7.6+commit.7338295f.Emscripten.clang"
  },
  "schemaVersion": "3.3.2",
  "updatedAt": "2021-01-10T10:23:58.776Z",
  "networkType": "ethereum",
  "devdoc": {
    "author": "Aniket Parate",
    "kind": "dev",
    "methods": {
      "addVideo(string,string)": {
        "details": "Adds Video Details to the blockchainAdd the necessary require statements",
        "params": {
          "_description": "Description of Video",
          "_name": "Name of Video"
        }
      },
      "tip(uint256)": {
        "details": "CAUTION Currently it is taking the index of array, to be modified to take video Id",
        "params": {
          "_videoId": "Id of the video"
        }
      }
    },
    "title": "Attention economy for videos",
    "version": 1
  },
  "userdoc": {
    "events": {
      "tipped(uint256,address,address)": {
        "notice": "Event after the amount is tipped"
      },
      "videoAdded(uint256,address)": {
        "notice": "Event emitted after video is addVideo"
      }
    },
    "kind": "user",
    "methods": {
      "tip(uint256)": {
        "notice": "Function for tipping the creator of the video"
      },
      "totalVideos()": {
        "notice": "total number of videos stored currently."
      },
      "videos(uint256)": {
        "notice": "Mapping from video id to the video struct stored on blockchain"
      }
    },
    "notice": "Contract implementing direct and complete payment to the artist as well as adding videos",
    "version": 1
  }
}