{
  "contractName": "StakeTube",
  "abi": [
    {
      "anonymous": false,
      "inputs": [
        {
          "indexed": false,
          "internalType": "uint256",
          "name": "videoId",
          "type": "uint256"
        },
        {
          "indexed": false,
          "internalType": "address payable",
          "name": "creator",
          "type": "address"
        },
        {
          "indexed": false,
          "internalType": "address payable",
          "name": "tipper",
          "type": "address"
        }
      ],
      "name": "tipped",
      "type": "event"
    },
    {
      "anonymous": false,
      "inputs": [
        {
          "indexed": false,
          "internalType": "uint256",
          "name": "videoId",
          "type": "uint256"
        },
        {
          "indexed": false,
          "internalType": "address payable",
          "name": "creator",
          "type": "address"
        }
      ],
      "name": "videoAdded",
      "type": "event"
    },
    {
      "inputs": [
        {
          "internalType": "uint256",
          "name": "",
          "type": "uint256"
        },
        {
          "internalType": "uint256",
          "name": "",
          "type": "uint256"
        }
      ],
      "name": "idToTippers",
      "outputs": [
        {
          "internalType": "address payable",
          "name": "",
          "type": "address"
        }
      ],
      "stateMutability": "view",
      "type": "function",
      "constant": true
    },
    {
      "inputs": [
        {
          "internalType": "uint256",
          "name": "",
          "type": "uint256"
        }
      ],
      "name": "idToVideo",
      "outputs": [
        {
          "internalType": "uint256",
          "name": "videoId",
          "type": "uint256"
        },
        {
          "internalType": "string",
          "name": "name",
          "type": "string"
        },
        {
          "internalType": "string",
          "name": "description",
          "type": "string"
        },
        {
          "internalType": "address payable",
          "name": "creator",
          "type": "address"
        }
      ],
      "stateMutability": "view",
      "type": "function",
      "constant": true
    },
    {
      "inputs": [],
      "name": "totalVideos",
      "outputs": [
        {
          "internalType": "uint256",
          "name": "",
          "type": "uint256"
        }
      ],
      "stateMutability": "view",
      "type": "function",
      "constant": true
    },
    {
      "inputs": [
        {
          "internalType": "string",
          "name": "_name",
          "type": "string"
        },
        {
          "internalType": "string",
          "name": "_description",
          "type": "string"
        }
      ],
      "name": "addVideo",
      "outputs": [],
      "stateMutability": "nonpayable",
      "type": "function"
    },
    {
      "inputs": [
        {
          "internalType": "uint256",
          "name": "_videoId",
          "type": "uint256"
        }
      ],
      "name": "tip",
      "outputs": [],
      "stateMutability": "payable",
      "type": "function",
      "payable": true
    }
  ],
  "bytecode": "0x608060405234801561001057600080fd5b50610a6d806100206000396000f3fe60806040526004361061004a5760003560e01c80630dbd9bdc1461004f578063b60bebb9146101ae578063cd544f641461021d578063e230a20814610361578063e8b69bc31461038c575b600080fd5b34801561005b57600080fd5b506101ac6004803603604081101561007257600080fd5b810190808035906020019064010000000081111561008f57600080fd5b8201836020820111156100a157600080fd5b803590602001918460018302840111640100000000831117156100c357600080fd5b91908080601f016020809104026020016040519081016040528093929190818152602001838380828437600081840152601f19601f8201169050808301925050505050505091929192908035906020019064010000000081111561012657600080fd5b82018360208201111561013857600080fd5b8035906020019184600183028401116401000000008311171561015a57600080fd5b91908080601f016020809104026020016040519081016040528093929190818152602001838380828437600081840152601f19601f8201169050808301925050505050505091929192905050506103ba565b005b3480156101ba57600080fd5b506101f1600480360360408110156101d157600080fd5b810190808035906020019092919080359060200190929190505050610509565b604051808273ffffffffffffffffffffffffffffffffffffffff16815260200191505060405180910390f35b34801561022957600080fd5b506102566004803603602081101561024057600080fd5b8101908080359060200190929190505050610557565b6040518085815260200180602001806020018473ffffffffffffffffffffffffffffffffffffffff168152602001838103835286818151815260200191508051906020019080838360005b838110156102bc5780820151818401526020810190506102a1565b50505050905090810190601f1680156102e95780820380516001836020036101000a031916815260200191505b50838103825285818151815260200191508051906020019080838360005b83811015610322578082015181840152602081019050610307565b50505050905090810190601f16801561034f5780820380516001836020036101000a031916815260200191505b50965050505050505060405180910390f35b34801561036d57600080fd5b506103766106d7565b6040518082815260200191505060405180910390f35b6103b8600480360360208110156103a257600080fd5b81019080803590602001909291905050506106dd565b005b6000808154809291906001019190505550600080549050600060405180608001604052808381526020018581526020018481526020013373ffffffffffffffffffffffffffffffffffffffff1681525090508060016000848152602001908152602001600020600082015181600001556020820151816001019080519060200190610446929190610961565b506040820151816002019080519060200190610463929190610961565b5060608201518160030160006101000a81548173ffffffffffffffffffffffffffffffffffffffff021916908373ffffffffffffffffffffffffffffffffffffffff1602179055509050507f575c04ce1860600eaadeffb7de46bfa696eef7a41f20431cf444a41ede93ebcc8233604051808381526020018273ffffffffffffffffffffffffffffffffffffffff1681526020019250505060405180910390a150505050565b6002602052816000526040600020818154811061052557600080fd5b906000526020600020016000915091509054906101000a900473ffffffffffffffffffffffffffffffffffffffff1681565b6001602052806000526040600020600091509050806000015490806001018054600181600116156101000203166002900480601f0160208091040260200160405190810160405280929190818152602001828054600181600116156101000203166002900480156106095780601f106105de57610100808354040283529160200191610609565b820191906000526020600020905b8154815290600101906020018083116105ec57829003601f168201915b505050505090806002018054600181600116156101000203166002900480601f0160208091040260200160405190810160405280929190818152602001828054600181600116156101000203166002900480156106a75780601f1061067c576101008083540402835291602001916106a7565b820191906000526020600020905b81548152906001019060200180831161068a57829003601f168201915b5050505050908060030160009054906101000a900473ffffffffffffffffffffffffffffffffffffffff16905084565b60005481565b600060016000838152602001908152602001600020905060008160030160009054906101000a900473ffffffffffffffffffffffffffffffffffffffff1690506000826000015490506000341161079c576040517f08c379a000000000000000000000000000000000000000000000000000000000815260040180806020018281038252601b8152602001807f546865207469702073686f756c64206265206e6f6e2d7a65726f2e000000000081525060200191505060405180910390fd5b8173ffffffffffffffffffffffffffffffffffffffff163373ffffffffffffffffffffffffffffffffffffffff161415610821576040517f08c379a000000000000000000000000000000000000000000000000000000000815260040180806020018281038252602b815260200180610a0d602b913960400191505060405180910390fd5b61082a846108ea565b8173ffffffffffffffffffffffffffffffffffffffff166108fc349081150290604051600060405180830381858888f19350505050158015610870573d6000803e3d6000fd5b507fff4e2c4b5b26e1896ee316ccc4b45ebe98440c57e707da4c11c3354727260f72818333604051808481526020018373ffffffffffffffffffffffffffffffffffffffff1681526020018273ffffffffffffffffffffffffffffffffffffffff168152602001935050505060405180910390a150505050565b60026000828152602001908152602001600020339080600181540180825580915050600190039060005260206000200160009091909190916101000a81548173ffffffffffffffffffffffffffffffffffffffff021916908373ffffffffffffffffffffffffffffffffffffffff16021790555050565b828054600181600116156101000203166002900490600052602060002090601f01602090048101928261099757600085556109de565b82601f106109b057805160ff19168380011785556109de565b828001600101855582156109de579182015b828111156109dd5782518255916020019190600101906109c2565b5b5090506109eb91906109ef565b5090565b5b80821115610a085760008160009055506001016109f0565b509056fe43726561746f72206f662074686520766964656f2063616e6e6f7420746970207468656d73656c76657321a26469706673582212208fa9813bef5be84ad9fa9a3961fb2637fd5abdc935794642b09f34acd07e103964736f6c63430007060033",
  "immutableReferences": {},
  "source": "// SPDX-License-Identifier: UNLICENSED\npragma solidity ^0.7.0;\n\n/// @title Attention economy for videos\n/// @author Aniket Parate\n/// @notice Contract implementing direct and complete payment to the artist as well as adding videos\n/// @dev Current implementation just consists of tipping and distribution of the tips.\n/// @dev Later Implementations include: NFTs, Streaming, Bulk transfers\ncontract StakeTube {\n\n    /// @notice Structure for storing videos\n    /// @dev currently ipfs is not implemented, implement using the string ipfsHash\n    struct Video{\n        uint videoId;\n        string name;\n        string description;\n        address payable creator;\n        // TODO: Implement IPFS\n        // string ipfsHash;\n    }\n\n    /// @notice total number of videos stored currently.\n    uint public totalVideos;\n\n    /// @notice Mapping from video id to the video struct stored on blockchain\n    mapping (uint => Video) public idToVideo;\n\n    /// @notice Mapping from Video id to tippers array\n    /// @dev A different mapping is created because if it would have been stored in an array as earlier, \n    /// @dev then everytime the complete video object would have been needed to be fetched which would be expensive\n    mapping (uint => address payable[]) public idToTippers;\n\n    /// @notice Event emitted after video is added using addVideo\n    event videoAdded(\n        uint videoId,\n        address payable creator\n    );\n\n    /// @notice Event after the amount is tipped\n    event tipped(\n        uint videoId,\n        address payable creator,\n        address payable tipper\n    );\n\n    /// @dev Adds Video Details to the blockchain\n    /// @dev Add the necessary require statements\n    /// @param _name Name of Video\n    /// @param _description Description of Video\n    function addVideo(string memory _name, string memory _description) public {\n        totalVideos++;\n        uint _videoId = totalVideos;\n        Video memory video = Video(\n            _videoId,\n            _name,\n            _description,\n            msg.sender\n        );\n        idToVideo[_videoId] = video;\n        emit videoAdded(_videoId, msg.sender);\n\n    }\n\n    /// @notice Adding tipper to the corresponding video with given video Id\n    /// @param _videoId Id of the video\n    function addTipper(uint _videoId) private {\n        idToTippers[_videoId].push(msg.sender);\n    }\n\n    /// @notice Function for tipping the creator of the video\n    /// @param _videoId Id of the video\n    /// @dev CAUTION Currently it is taking the index of array, to be modified to take video Id\n    function tip(uint _videoId) public payable{\n        Video storage myVideo = idToVideo[_videoId];\n        address payable creator = myVideo.creator;\n        uint myVideoId = myVideo.videoId;\n\n        require(\n            msg.value > 0, \n            \"The tip should be non-zero.\"\n        );\n\n        require(\n            msg.sender != creator,\n            \"Creator of the video cannot tip themselves!\"\n        );\n\n        // TODO: Add a require to check the existence of a video\n        // TODO: Require for checking if the tipper exists currently\n        addTipper(_videoId);\n\n        // TODO: Failure condition of the value transfer to be handled\n        // TODO: Distribution function to be implemented.\n        creator.transfer(msg.value);\n        emit tipped(myVideoId, creator, msg.sender);\n    }\n\n}",
  "sourcePath": "/home/versilio/VERSILIO/Techworks/Blockchain/Stake-Tube/st-artist/contracts/StakeTube.sol",
  "compiler": {
    "name": "solc",
    "version": "0.7.6+commit.7338295f.Emscripten.clang"
  },
  "schemaVersion": "3.3.2",
  "updatedAt": "2021-01-10T13:09:52.890Z",
  "networkType": "ethereum",
  "devdoc": {
    "author": "Aniket Parate",
    "details": "Current implementation just consists of tipping and distribution of the tips.Later Implementations include: NFTs, Streaming, Bulk transfers",
    "kind": "dev",
    "methods": {
      "addVideo(string,string)": {
        "details": "Adds Video Details to the blockchainAdd the necessary require statements",
        "params": {
          "_description": "Description of Video",
          "_name": "Name of Video"
        }
      },
      "tip(uint256)": {
        "details": "CAUTION Currently it is taking the index of array, to be modified to take video Id",
        "params": {
          "_videoId": "Id of the video"
        }
      }
    },
    "stateVariables": {
      "idToTippers": {
        "details": "A different mapping is created because if it would have been stored in an array as earlier, then everytime the complete video object would have been needed to be fetched which would be expensive"
      }
    },
    "title": "Attention economy for videos",
    "version": 1
  },
  "userdoc": {
    "events": {
      "tipped(uint256,address,address)": {
        "notice": "Event after the amount is tipped"
      },
      "videoAdded(uint256,address)": {
        "notice": "Event emitted after video is added using addVideo"
      }
    },
    "kind": "user",
    "methods": {
      "idToTippers(uint256,uint256)": {
        "notice": "Mapping from Video id to tippers array"
      },
      "idToVideo(uint256)": {
        "notice": "Mapping from video id to the video struct stored on blockchain"
      },
      "tip(uint256)": {
        "notice": "Function for tipping the creator of the video"
      },
      "totalVideos()": {
        "notice": "total number of videos stored currently."
      }
    },
    "notice": "Contract implementing direct and complete payment to the artist as well as adding videos",
    "version": 1
  }
}