{
  "contractName": "Attention",
  "abi": [
    {
      "anonymous": false,
      "inputs": [
        {
          "indexed": false,
          "internalType": "uint256",
          "name": "videoId",
          "type": "uint256"
        },
        {
          "indexed": false,
          "internalType": "address payable",
          "name": "creatorId",
          "type": "address"
        }
      ],
      "name": "videoAdded",
      "type": "event"
    },
    {
      "inputs": [],
      "name": "videoNos",
      "outputs": [
        {
          "internalType": "uint256",
          "name": "",
          "type": "uint256"
        }
      ],
      "stateMutability": "view",
      "type": "function"
    },
    {
      "inputs": [
        {
          "internalType": "uint256",
          "name": "",
          "type": "uint256"
        }
      ],
      "name": "videos",
      "outputs": [
        {
          "internalType": "string",
          "name": "name",
          "type": "string"
        },
        {
          "internalType": "string",
          "name": "description",
          "type": "string"
        },
        {
          "internalType": "uint256",
          "name": "videoId",
          "type": "uint256"
        }
      ],
      "stateMutability": "view",
      "type": "function"
    },
    {
      "inputs": [
        {
          "internalType": "string",
          "name": "_name",
          "type": "string"
        },
        {
          "internalType": "string",
          "name": "_description",
          "type": "string"
        }
      ],
      "name": "addVideo",
      "outputs": [],
      "stateMutability": "nonpayable",
      "type": "function"
    },
    {
      "inputs": [
        {
          "internalType": "uint256",
          "name": "_videoId",
          "type": "uint256"
        }
      ],
      "name": "videoEarnings",
      "outputs": [],
      "stateMutability": "payable",
      "type": "function"
    },
    {
      "inputs": [
        {
          "internalType": "uint256",
          "name": "_videoId",
          "type": "uint256"
        }
      ],
      "name": "displayViews",
      "outputs": [
        {
          "internalType": "uint256",
          "name": "",
          "type": "uint256"
        }
      ],
      "stateMutability": "view",
      "type": "function"
    }
  ],
  "bytecode": "0x6080604052670de0b6b3a76400006000557362654da0ef6695d8ca361199278ed0ae00023bdd600160006101000a81548173ffffffffffffffffffffffffffffffffffffffff021916908373ffffffffffffffffffffffffffffffffffffffff16021790555034801561007157600080fd5b50610da9806100816000396000f3fe60806040526004361061004a5760003560e01c80630dbd9bdc1461004f5780631c891e1a146101ae5780634257b547146101fd5780638c7db92014610228578063e6821bf514610256575b600080fd5b34801561005b57600080fd5b506101ac6004803603604081101561007257600080fd5b810190808035906020019064010000000081111561008f57600080fd5b8201836020820111156100a157600080fd5b803590602001918460018302840111640100000000831117156100c357600080fd5b91908080601f016020809104026020016040519081016040528093929190818152602001838380828437600081840152601f19601f8201169050808301925050505050505091929192908035906020019064010000000081111561012657600080fd5b82018360208201111561013857600080fd5b8035906020019184600183028401116401000000008311171561015a57600080fd5b91908080601f016020809104026020016040519081016040528093929190818152602001838380828437600081840152601f19601f82011690508083019250505050505050919291929050505061037d565b005b3480156101ba57600080fd5b506101e7600480360360208110156101d157600080fd5b8101908080359060200190929190505050610521565b6040518082815260200191505060405180910390f35b34801561020957600080fd5b50610212610547565b6040518082815260200191505060405180910390f35b6102546004803603602081101561023e57600080fd5b810190808035906020019092919050505061054d565b005b34801561026257600080fd5b5061028f6004803603602081101561027957600080fd5b81019080803590602001909291905050506109fd565b604051808060200180602001848152602001838103835286818151815260200191508051906020019080838360005b838110156102d95780820151818401526020810190506102be565b50505050905090810190601f1680156103065780820380516001836020036101000a031916815260200191505b50838103825285818151815260200191508051906020019080838360005b8381101561033f578082015181840152602081019050610324565b50505050905090810190601f16801561036c5780820380516001836020036101000a031916815260200191505b509550505050505060405180910390f35b6002600081548092919060010191905055506000600254905060006040518060800160405280858152602001848152602001838152602001600167ffffffffffffffff811180156103cd57600080fd5b506040519080825280602002602001820160405280156103fc5781602001602082028036833780820191505090505b50815250905033816060015160008151811061041457fe5b602002602001019073ffffffffffffffffffffffffffffffffffffffff16908173ffffffffffffffffffffffffffffffffffffffff16815250508060036000848152602001908152602001600020600082015181600001908051906020019061047e929190610b57565b50602082015181600101908051906020019061049b929190610b57565b506040820151816002015560608201518160030190805190602001906104c2929190610be5565b509050507f575c04ce1860600eaadeffb7de46bfa696eef7a41f20431cf444a41ede93ebcc8233604051808381526020018273ffffffffffffffffffffffffffffffffffffffff1681526020019250505060405180910390a150505050565b600060016003600084815260200190815260200160002060030180549050039050919050565b60025481565b6000600360008381526020019081526020016000209050600060018260030180549050141561068057600160009054906101000a900473ffffffffffffffffffffffffffffffffffffffff1673ffffffffffffffffffffffffffffffffffffffff166108fc6050600054816105be57fe5b049081150290604051600060405180830381858888f193505050501580156105ea573d6000803e3d6000fd5b50816003016000815481106105fb57fe5b9060005260206000200160009054906101000a900473ffffffffffffffffffffffffffffffffffffffff1673ffffffffffffffffffffffffffffffffffffffff166108fc60506000548161064b57fe5b04604f029081150290604051600060405180830381858888f1935050505015801561067a573d6000803e3d6000fd5b5061089d565b60018260030180549050039050600160009054906101000a900473ffffffffffffffffffffffffffffffffffffffff1673ffffffffffffffffffffffffffffffffffffffff166108fc6050600054816106d557fe5b049081150290604051600060405180830381858888f19350505050158015610701573d6000803e3d6000fd5b508160030160008154811061071257fe5b9060005260206000200160009054906101000a900473ffffffffffffffffffffffffffffffffffffffff1673ffffffffffffffffffffffffffffffffffffffff166108fc60146000546009028161076557fe5b049081150290604051600060405180830381858888f19350505050158015610791573d6000803e3d6000fd5b506000806002838161079f57fe5b0614156107bd5760018201600283816107b457fe5b0402905061089b565b600260018301816107ca57fe5b04820290506000806000600190505b85600301805490508110156108975760018103850391508382816107f957fe5b04925085600301818154811061080b57fe5b9060005260206000200160009054906101000a900473ffffffffffffffffffffffffffffffffffffffff1673ffffffffffffffffffffffffffffffffffffffff166108fc60026000548161085b57fe5b0485029081150290604051600060405180830381858888f19350505050158015610889573d6000803e3d6000fd5b5080806001019150506107d9565b5050505b505b816003016000815481106108ad57fe5b9060005260206000200160009054906101000a900473ffffffffffffffffffffffffffffffffffffffff1673ffffffffffffffffffffffffffffffffffffffff163373ffffffffffffffffffffffffffffffffffffffff16146109705781600301339080600181540180825580915050600190039060005260206000200160009091909190916101000a81548173ffffffffffffffffffffffffffffffffffffffff021916908373ffffffffffffffffffffffffffffffffffffffff1602179055505b8160036000858152602001908152602001600020600082018160000190805460018160011615610100020316600290046109ab929190610c6f565b50600182018160010190805460018160011615610100020316600290046109d3929190610c6f565b506002820154816002015560038201816003019080546109f4929190610d04565b50905050505050565b6003602052806000526040600020600091509050806000018054600181600116156101000203166002900480601f016020809104026020016040519081016040528092919081815260200182805460018160011615610100020316600290048015610aa95780601f10610a7e57610100808354040283529160200191610aa9565b820191906000526020600020905b815481529060010190602001808311610a8c57829003601f168201915b505050505090806001018054600181600116156101000203166002900480601f016020809104026020016040519081016040528092919081815260200182805460018160011615610100020316600290048015610b475780601f10610b1c57610100808354040283529160200191610b47565b820191906000526020600020905b815481529060010190602001808311610b2a57829003601f168201915b5050505050908060020154905083565b828054600181600116156101000203166002900490600052602060002090601f016020900481019282610b8d5760008555610bd4565b82601f10610ba657805160ff1916838001178555610bd4565b82800160010185558215610bd4579182015b82811115610bd3578251825591602001919060010190610bb8565b5b509050610be19190610d56565b5090565b828054828255906000526020600020908101928215610c5e579160200282015b82811115610c5d5782518260006101000a81548173ffffffffffffffffffffffffffffffffffffffff021916908373ffffffffffffffffffffffffffffffffffffffff16021790555091602001919060010190610c05565b5b509050610c6b9190610d56565b5090565b828054600181600116156101000203166002900490600052602060002090601f016020900481019282610ca55760008555610cf3565b82601f10610cb65780548555610cf3565b82800160010185558215610cf357600052602060002091601f016020900482015b82811115610cf2578254825591600101919060010190610cd7565b5b509050610d009190610d56565b5090565b828054828255906000526020600020908101928215610d455760005260206000209182015b82811115610d44578254825591600101919060010190610d29565b5b509050610d529190610d56565b5090565b5b80821115610d6f576000816000905550600101610d57565b509056fea264697066735822122080396142d29c0d77dba0913008ccd351feef2c040e84015adc293f98994026ae64736f6c63430007060033",
  "immutableReferences": {},
  "source": "/** Part of project demonstrated at ETHIndia 2.0 */\n// SPDX-License-Identifier: UNLICENSED\npragma solidity ^0.7.0;\n\n// TODO: Implement ownable contract\n// TODO: Implement safemath\n\n/// @title Attention economy for videos\n/// @author Aniket Parate\n/// @notice Version 0.0.1\n/// @notice Contract for implementing basic functions for adding videos and tipping\n/// @dev safemath and other security considerations are not implemented\ncontract Attention {\n    uint initialViewFee = 1000000000000000000 wei;\n    address payable owner = 0x62654dA0eF6695d8ca361199278eD0aE00023BDD;\n\n    /// @notice structure for storing Video details in the blockchain\n    /// @dev ipfs hash and creator details to be implemented later\n    struct Video {\n        string name;\n        string description;         //Other COmplementary things like date n all can be implemented\n        uint videoId;               //More advanced functionality like category can also be implemented\n        //address payable creatorId;\n        address payable[] users;\n        //string ipfsHash;          //To be implemented Later\n        //bool isPrivate;\n    }\n\n    /// @notice Public variable for storing total number of videos\n    uint public videoNos;\n\n    /// @notice Mapping from video id to the video struct stored on blockchain\n    mapping (uint => Video) public videos;\n\n    /// @notice Event indicating video addition\n    /// @dev Including users and Videos array hence no need to declare a constructor\n    event videoAdded(\n        uint videoId,\n        address payable creatorId\n    );\n\n    /// @dev Adds Video Details to the blockchain\n    /// @param _name Name of Video\n    /// @param _description Description of Video\n    function addVideo(string memory _name, string memory _description) public {\n        //require(bytes(_name).length != 0, \"Name of the Video cannot be Empty\");\n        videoNos++;\n        uint _videoId = videoNos;\n        Video memory video = Video(\n            _name,\n            _description,\n            _videoId,\n            new address payable[](1)\n        );\n        video.users[0] = msg.sender;\n        videos[_videoId] = video;\n        emit videoAdded(_videoId, msg.sender);\n    }\n\n    /// @notice Distributes the tip given by a user to all the previous tippers and the creator\n    /// @dev Current implementation model is just a proportional distribution model\n    /// @param _videoId Id of the video\n    function videoEarnings(uint _videoId) public payable {\n        Video storage videoClicked = videos[_videoId];              // TODO: Check for Refactoring\n        //require(msg.sender != videoClicked.creatorId);\n\n        uint views;\n        if(videoClicked.users.length == 1){\n            owner.transfer(initialViewFee/80);      // 1.25% of value for the company\n            videoClicked.users[0].transfer(79*(initialViewFee/80));\n        }\n        else{\n            views = videoClicked.users.length - 1;\n            owner.transfer(initialViewFee/80);      // 1.25% of value for the company\n            videoClicked.users[0].transfer(9*initialViewFee/20);\n            uint deno;\n            if(views % 2 == 0)\n                deno = (views/2)*(views + 1);\n            else{\n                deno = views*((views+1)/2);\n                uint fraction = 0;\n                uint num = 0;\n                for(uint i = 1; i < videoClicked.users.length; i++){\n                    num = views - (i-1);\n                    fraction = num/deno;\n                    videoClicked.users[i].transfer(fraction * (initialViewFee / 2));\n                }\n            }\n        }\n        \n\n        if(msg.sender != videoClicked.users[0])                         // TODO: Implement check with all users\n            videoClicked.users.push(msg.sender);                      //Check Whether the user is already in the users List\n        \n        //Persisting Video and User\n        videos[_videoId] = videoClicked;\n    }\n\n    /// @notice gets views on video\n    /// @param _videoId Id of the video\n    function displayViews(uint _videoId) public view returns(uint) {\n        return videos[_videoId].users.length - 1;\n    }\n}\n",
  "sourcePath": "/home/versilio/VERSILIO/Techworks/Blockchain/Stake-Tube/contracts/attention.sol",
  "compiler": {
    "name": "solc",
    "version": "0.7.6+commit.7338295f.Emscripten.clang"
  },
  "schemaVersion": "3.3.2",
  "updatedAt": "2021-01-12T04:45:06.004Z",
  "devdoc": {
    "author": "Aniket Parate",
    "details": "safemath and other security considerations are not implemented",
    "events": {
      "videoAdded(uint256,address)": {
        "details": "Including users and Videos array hence no need to declare a constructor"
      }
    },
    "kind": "dev",
    "methods": {
      "addVideo(string,string)": {
        "details": "Adds Video Details to the blockchain",
        "params": {
          "_description": "Description of Video",
          "_name": "Name of Video"
        }
      },
      "displayViews(uint256)": {
        "params": {
          "_videoId": "Id of the video"
        }
      },
      "videoEarnings(uint256)": {
        "details": "Current implementation model is just a proportional distribution model",
        "params": {
          "_videoId": "Id of the video"
        }
      }
    },
    "title": "Attention economy for videos",
    "version": 1
  },
  "userdoc": {
    "events": {
      "videoAdded(uint256,address)": {
        "notice": "Event indicating video addition"
      }
    },
    "kind": "user",
    "methods": {
      "displayViews(uint256)": {
        "notice": "gets views on video"
      },
      "videoEarnings(uint256)": {
        "notice": "Distributes the tip given by a user to all the previous tippers and the creator"
      },
      "videoNos()": {
        "notice": "Public variable for storing total number of videos"
      },
      "videos(uint256)": {
        "notice": "Mapping from video id to the video struct stored on blockchain"
      }
    },
    "notice": "Version 0.0.1Contract for implementing basic functions for adding videos and tipping",
    "version": 1
  }
}