{
  "contractName": "StakeTube",
  "abi": [
    {
      "anonymous": false,
      "inputs": [
        {
          "indexed": false,
          "internalType": "uint256",
          "name": "payoutAmount",
          "type": "uint256"
        }
      ],
      "name": "tipDistributed",
      "type": "event"
    },
    {
      "anonymous": false,
      "inputs": [
        {
          "indexed": false,
          "internalType": "uint256",
          "name": "videoId",
          "type": "uint256"
        },
        {
          "indexed": false,
          "internalType": "address payable",
          "name": "creator",
          "type": "address"
        },
        {
          "indexed": false,
          "internalType": "address payable",
          "name": "tipper",
          "type": "address"
        }
      ],
      "name": "tipped",
      "type": "event"
    },
    {
      "anonymous": false,
      "inputs": [
        {
          "indexed": false,
          "internalType": "uint256",
          "name": "videoId",
          "type": "uint256"
        },
        {
          "indexed": false,
          "internalType": "address payable",
          "name": "creator",
          "type": "address"
        }
      ],
      "name": "videoAdded",
      "type": "event"
    },
    {
      "inputs": [
        {
          "internalType": "uint256",
          "name": "",
          "type": "uint256"
        },
        {
          "internalType": "uint256",
          "name": "",
          "type": "uint256"
        }
      ],
      "name": "idToTippers",
      "outputs": [
        {
          "internalType": "address payable",
          "name": "",
          "type": "address"
        }
      ],
      "stateMutability": "view",
      "type": "function",
      "constant": true
    },
    {
      "inputs": [
        {
          "internalType": "uint256",
          "name": "",
          "type": "uint256"
        }
      ],
      "name": "idToVideo",
      "outputs": [
        {
          "internalType": "uint256",
          "name": "videoId",
          "type": "uint256"
        },
        {
          "internalType": "string",
          "name": "name",
          "type": "string"
        },
        {
          "internalType": "string",
          "name": "description",
          "type": "string"
        },
        {
          "internalType": "address payable",
          "name": "creator",
          "type": "address"
        }
      ],
      "stateMutability": "view",
      "type": "function",
      "constant": true
    },
    {
      "inputs": [],
      "name": "totalVideos",
      "outputs": [
        {
          "internalType": "uint256",
          "name": "",
          "type": "uint256"
        }
      ],
      "stateMutability": "view",
      "type": "function",
      "constant": true
    },
    {
      "inputs": [
        {
          "internalType": "string",
          "name": "_name",
          "type": "string"
        },
        {
          "internalType": "string",
          "name": "_description",
          "type": "string"
        }
      ],
      "name": "addVideo",
      "outputs": [],
      "stateMutability": "nonpayable",
      "type": "function"
    },
    {
      "inputs": [
        {
          "internalType": "address payable[]",
          "name": "_tippers",
          "type": "address[]"
        },
        {
          "internalType": "uint256",
          "name": "_payout",
          "type": "uint256"
        }
      ],
      "name": "distributeTip",
      "outputs": [],
      "stateMutability": "payable",
      "type": "function",
      "payable": true
    },
    {
      "inputs": [
        {
          "internalType": "uint256",
          "name": "_videoId",
          "type": "uint256"
        }
      ],
      "name": "tip",
      "outputs": [],
      "stateMutability": "payable",
      "type": "function",
      "payable": true
    }
  ],
  "bytecode": "0x608060405234801561001057600080fd5b50610d1f806100206000396000f3fe6080604052600436106100555760003560e01c80630dbd9bdc1461005a5780637e81e032146101b9578063b60bebb91461027b578063cd544f64146102ea578063e230a2081461042e578063e8b69bc314610459575b600080fd5b34801561006657600080fd5b506101b76004803603604081101561007d57600080fd5b810190808035906020019064010000000081111561009a57600080fd5b8201836020820111156100ac57600080fd5b803590602001918460018302840111640100000000831117156100ce57600080fd5b91908080601f016020809104026020016040519081016040528093929190818152602001838380828437600081840152601f19601f8201169050808301925050505050505091929192908035906020019064010000000081111561013157600080fd5b82018360208201111561014357600080fd5b8035906020019184600183028401116401000000008311171561016557600080fd5b91908080601f016020809104026020016040519081016040528093929190818152602001838380828437600081840152601f19601f820116905080830192505050505050509192919290505050610487565b005b610279600480360360408110156101cf57600080fd5b81019080803590602001906401000000008111156101ec57600080fd5b8201836020820111156101fe57600080fd5b8035906020019184602083028401116401000000008311171561022057600080fd5b919080806020026020016040519081016040528093929190818152602001838360200280828437600081840152601f19601f820116905080830192505050505050509192919290803590602001909291905050506105d6565b005b34801561028757600080fd5b506102be6004803603604081101561029e57600080fd5b8101908080359060200190929190803590602001909291905050506106e2565b604051808273ffffffffffffffffffffffffffffffffffffffff16815260200191505060405180910390f35b3480156102f657600080fd5b506103236004803603602081101561030d57600080fd5b8101908080359060200190929190505050610730565b6040518085815260200180602001806020018473ffffffffffffffffffffffffffffffffffffffff168152602001838103835286818151815260200191508051906020019080838360005b8381101561038957808201518184015260208101905061036e565b50505050905090810190601f1680156103b65780820380516001836020036101000a031916815260200191505b50838103825285818151815260200191508051906020019080838360005b838110156103ef5780820151818401526020810190506103d4565b50505050905090810190601f16801561041c5780820380516001836020036101000a031916815260200191505b50965050505050505060405180910390f35b34801561043a57600080fd5b506104436108b0565b6040518082815260200191505060405180910390f35b6104856004803603602081101561046f57600080fd5b81019080803590602001909291905050506108b6565b005b6000808154809291906001019190505550600080549050600060405180608001604052808381526020018581526020018481526020013373ffffffffffffffffffffffffffffffffffffffff1681525090508060016000848152602001908152602001600020600082015181600001556020820151816001019080519060200190610513929190610c13565b506040820151816002019080519060200190610530929190610c13565b5060608201518160030160006101000a81548173ffffffffffffffffffffffffffffffffffffffff021916908373ffffffffffffffffffffffffffffffffffffffff1602179055509050507f575c04ce1860600eaadeffb7de46bfa696eef7a41f20431cf444a41ede93ebcc8233604051808381526020018273ffffffffffffffffffffffffffffffffffffffff1681526020019250505060405180910390a150505050565b600082519050600080600080600285816105ec57fe5b06141561060a57600184016002858161060157fe5b0402905061061d565b6002600185018161061757fe5b04840290505b60005b848110156106a257808503925081838161063657fe5b04935086818151811061064557fe5b602002602001015173ffffffffffffffffffffffffffffffffffffffff166108fc8786029081150290604051600060405180830381858888f19350505050158015610694573d6000803e3d6000fd5b508080600101915050610620565b507fe0f63335cef061afcf351288e8b054e428e8b6cb7619857d0cf9f71866651732856040518082815260200191505060405180910390a1505050505050565b600260205281600052604060002081815481106106fe57600080fd5b906000526020600020016000915091509054906101000a900473ffffffffffffffffffffffffffffffffffffffff1681565b6001602052806000526040600020600091509050806000015490806001018054600181600116156101000203166002900480601f0160208091040260200160405190810160405280929190818152602001828054600181600116156101000203166002900480156107e25780601f106107b7576101008083540402835291602001916107e2565b820191906000526020600020905b8154815290600101906020018083116107c557829003601f168201915b505050505090806002018054600181600116156101000203166002900480601f0160208091040260200160405190810160405280929190818152602001828054600181600116156101000203166002900480156108805780601f1061085557610100808354040283529160200191610880565b820191906000526020600020905b81548152906001019060200180831161086357829003601f168201915b5050505050908060030160009054906101000a900473ffffffffffffffffffffffffffffffffffffffff16905084565b60005481565b600060016000838152602001908152602001600020905060008160030160009054906101000a900473ffffffffffffffffffffffffffffffffffffffff169050600082600001549050600073ffffffffffffffffffffffffffffffffffffffff166001600086815260200190815260200160002060030160009054906101000a900473ffffffffffffffffffffffffffffffffffffffff1673ffffffffffffffffffffffffffffffffffffffff1614156109d8576040517f08c379a00000000000000000000000000000000000000000000000000000000081526004018080602001828103825260168152602001807f566964656f20646f6573206e6f7420657869737473210000000000000000000081525060200191505060405180910390fd5b60003411610a4e576040517f08c379a000000000000000000000000000000000000000000000000000000000815260040180806020018281038252601b8152602001807f546865207469702073686f756c64206265206e6f6e2d7a65726f2e000000000081525060200191505060405180910390fd5b8173ffffffffffffffffffffffffffffffffffffffff163373ffffffffffffffffffffffffffffffffffffffff161415610ad3576040517f08c379a000000000000000000000000000000000000000000000000000000000815260040180806020018281038252602b815260200180610cbf602b913960400191505060405180910390fd5b610adc84610b9c565b8173ffffffffffffffffffffffffffffffffffffffff166108fc349081150290604051600060405180830381858888f19350505050158015610b22573d6000803e3d6000fd5b507fff4e2c4b5b26e1896ee316ccc4b45ebe98440c57e707da4c11c3354727260f72818333604051808481526020018373ffffffffffffffffffffffffffffffffffffffff1681526020018273ffffffffffffffffffffffffffffffffffffffff168152602001935050505060405180910390a150505050565b60026000828152602001908152602001600020339080600181540180825580915050600190039060005260206000200160009091909190916101000a81548173ffffffffffffffffffffffffffffffffffffffff021916908373ffffffffffffffffffffffffffffffffffffffff16021790555050565b828054600181600116156101000203166002900490600052602060002090601f016020900481019282610c495760008555610c90565b82601f10610c6257805160ff1916838001178555610c90565b82800160010185558215610c90579182015b82811115610c8f578251825591602001919060010190610c74565b5b509050610c9d9190610ca1565b5090565b5b80821115610cba576000816000905550600101610ca2565b509056fe43726561746f72206f662074686520766964656f2063616e6e6f7420746970207468656d73656c76657321a2646970667358221220814fcfc945f7420c3e9fed15d100473d83f3fd1a9a08908d62e8912bc031dd9b64736f6c63430007060033",
  "immutableReferences": {},
  "source": "// SPDX-License-Identifier: UNLICENSED\npragma solidity ^0.7.0;\n\n/// @title Attention economy for videos\n/// @author Aniket Parate\n/// @notice Contract implementing direct and complete payment to the artist as well as adding videos\n/// @dev Current implementation just consists of tipping and distribution of the tips.\n/// @dev Later Implementations include: NFTs, Streaming, Bulk transfers\ncontract StakeTube {\n\n    /// @notice Structure for storing videos\n    /// @dev currently ipfs is not implemented, implement using the string ipfsHash\n    struct Video{\n        uint videoId;\n        string name;\n        string description;\n        address payable creator;\n        // TODO: Implement IPFS\n        // string ipfsHash;\n    }\n\n    /// @notice total number of videos stored currently.\n    uint public totalVideos;\n\n    /// @notice Mapping from video id to the video struct stored on blockchain\n    mapping (uint => Video) public idToVideo;\n\n    /// @notice Mapping from Video id to tippers array\n    /// @dev A different mapping is created because if it would have been stored in an array as earlier, \n    /// @dev then everytime the complete video object would have been needed to be fetched which would be expensive\n    mapping (uint => address payable[]) public idToTippers;\n\n    /// @notice Event emitted after video is added using addVideo\n    event videoAdded(\n        uint videoId,\n        address payable creator\n    );\n\n    /// @notice Event after the amount is tipped\n    event tipped(\n        uint videoId,\n        address payable creator,\n        address payable tipper\n    );\n\n    /// @notice Event after the tip is distributed\n    event tipDistributed(\n        uint payoutAmount\n    );\n\n    /// @dev Adds Video Details to the blockchain\n    /// @dev Add the necessary require statements\n    /// @param _name Name of Video\n    /// @param _description Description of Video\n    function addVideo(string memory _name, string memory _description) public {\n        totalVideos++;\n        uint _videoId = totalVideos;\n        Video memory video = Video(\n            _videoId,\n            _name,\n            _description,\n            msg.sender\n        );\n        idToVideo[_videoId] = video;\n        emit videoAdded(_videoId, msg.sender);\n\n    }\n\n    /// @notice Adding tipper to the corresponding video with given video Id\n    /// @param _videoId Id of the video\n    function addTipper(uint _videoId) private {\n        idToTippers[_videoId].push(msg.sender);\n    }\n\n    /// @notice Function for distribution of tip among all the tippers\n    /// @dev optimizations could be done using the bulk payments maybe or merkel trees\n    /// @dev Here security could be implemented to ensure that it is only called tip function\n    // TODO: Implement the above security proposal statement\n    // TODO: Test this function\n    function distributeTip(address payable[] memory _tippers, uint _payout) public payable {\n        uint tippersNumber = _tippers.length;\n        \n        uint fraction = 0;\n        uint num = 0;\n        uint deno;  // Sum of n consecutive numbers: n(n+1)/2\n        if(tippersNumber % 2 == 0)\n            deno = (tippersNumber/2)*(tippersNumber + 1);\n        else\n            deno = tippersNumber*((tippersNumber+1)/2);\n        \n        // Microtransactions\n        for(uint i = 0; i < tippersNumber; i++){\n            num = tippersNumber - i;\n            fraction = num/deno;\n            _tippers[i].transfer(fraction * _payout);\n        }\n        // As there is no float in solidity, some amount may be left out, see how it is to be handled\n        // TODO: Maybe this itself can be a payout to the platform\n\n        emit tipDistributed(_payout);\n    }\n\n    /// @notice Function for tipping the creator of the video\n    /// @param _videoId Id of the video\n    /// @dev CAUTION Currently it is taking the index of array, to be modified to take video Id\n    function tip (uint _videoId) public payable{\n        Video storage myVideo = idToVideo[_videoId];\n        address payable creator = myVideo.creator;\n        uint myVideoId = myVideo.videoId;\n\n        // TODO: Test requires\n        require(\n            idToVideo[_videoId].creator != address(0),\n            \"Video does not exists!\"\n        );\n\n        require(\n            msg.value > 0, \n            \"The tip should be non-zero.\"\n        );\n\n        require(\n            msg.sender != creator,\n            \"Creator of the video cannot tip themselves!\"\n        );\n\n        // TODO: Require for checking if the tipper exists currently\n        addTipper(_videoId);\n\n        // TODO: Failure condition of the value transfer to be handled\n        // TODO: Call distribute function here\n        creator.transfer(msg.value);\n        emit tipped(myVideoId, creator, msg.sender);\n    }\n\n}",
  "sourcePath": "/home/versilio/VERSILIO/Techworks/Blockchain/Stake-Tube/contracts/StakeTube.sol",
  "compiler": {
    "name": "solc",
    "version": "0.7.6+commit.7338295f.Emscripten.clang"
  },
  "schemaVersion": "3.3.2",
  "updatedAt": "2021-01-12T04:50:36.204Z",
  "networkType": "ethereum",
  "devdoc": {
    "author": "Aniket Parate",
    "details": "Current implementation just consists of tipping and distribution of the tips.Later Implementations include: NFTs, Streaming, Bulk transfers",
    "kind": "dev",
    "methods": {
      "addVideo(string,string)": {
        "details": "Adds Video Details to the blockchainAdd the necessary require statements",
        "params": {
          "_description": "Description of Video",
          "_name": "Name of Video"
        }
      },
      "distributeTip(address[],uint256)": {
        "details": "optimizations could be done using the bulk payments maybe or merkel treesHere security could be implemented to ensure that it is only called tip function"
      },
      "tip(uint256)": {
        "details": "CAUTION Currently it is taking the index of array, to be modified to take video Id",
        "params": {
          "_videoId": "Id of the video"
        }
      }
    },
    "stateVariables": {
      "idToTippers": {
        "details": "A different mapping is created because if it would have been stored in an array as earlier, then everytime the complete video object would have been needed to be fetched which would be expensive"
      }
    },
    "title": "Attention economy for videos",
    "version": 1
  },
  "userdoc": {
    "events": {
      "tipDistributed(uint256)": {
        "notice": "Event after the tip is distributed"
      },
      "tipped(uint256,address,address)": {
        "notice": "Event after the amount is tipped"
      },
      "videoAdded(uint256,address)": {
        "notice": "Event emitted after video is added using addVideo"
      }
    },
    "kind": "user",
    "methods": {
      "distributeTip(address[],uint256)": {
        "notice": "Function for distribution of tip among all the tippers"
      },
      "idToTippers(uint256,uint256)": {
        "notice": "Mapping from Video id to tippers array"
      },
      "idToVideo(uint256)": {
        "notice": "Mapping from video id to the video struct stored on blockchain"
      },
      "tip(uint256)": {
        "notice": "Function for tipping the creator of the video"
      },
      "totalVideos()": {
        "notice": "total number of videos stored currently."
      }
    },
    "notice": "Contract implementing direct and complete payment to the artist as well as adding videos",
    "version": 1
  }
}